:100000000C945D000C9485000C9485000C94850084
:100010000C9485000C9485000C9485000C9485004C
:100020000C9485000C9485000C9485000C9485003C
:100030000C9485000C9490030C9485000C9485001E
:100040000C9446030C9485000C9414030C94EE025B
:100050000C9485000C9485000C9485000C9485000C
:100060000C9485000C94850000000008000201003B
:100070000003040700000000000000000000000072
:10008000250028002B0000000000240027002A0083
:10009000040404040404040402020202020203032E
:1000A0000303030301020408102040800102040836
:1000B0001020010204081020E00411241FBECFEF1D
:1000C000D8E0DEBFCDBF11E0A0E0B1E0EAE9FAE0A0
:1000D00002C005900D92A838B107D9F722E0A8E830
:1000E000B1E001C01D92A633B207E1F710E0CDE503
:1000F000D0E004C02197FE010E943605CC35D1071F
:10010000C9F70E94B7030C944B050C94000090E0D3
:10011000FC01EC55FF4F249180579F4FFC018491C7
:10012000882399F090E0880F991FFC01EA57FF4F50
:10013000A591B491FC01E458FF4F859194918FB73C
:10014000F894EC91E22BEC938FBF0895AF92BF929D
:10015000CF92DF92EF92FF920F931F93CF93DF9393
:100160006C017B018B01040F151FEB015E01AE18C2
:10017000BF08C017D10759F06991D601ED91FC91E4
:100180000190F081E02DC6010995892B79F7C50111
:10019000DF91CF911F910F91FF90EF90DF90CF9063
:1001A000BF90AF900895FC01538D448D252F30E012
:1001B000842F90E0821B930B541710F0CF96089574
:1001C00001970895FC01918D828D981761F0A28DA1
:1001D000AE0FBF2FB11D5D968C91928D9F5F9F7367
:1001E000928F90E008958FEF9FEF0895FC01918D1D
:1001F000828D981731F0828DE80FF11D858D90E08A
:1002000008958FEF9FEF0895FC01918D228D892F26
:1002100090E0805C9F4F821B91098F73992708950E
:1002200089E991E00E94040121E0892B09F420E092
:10023000822F089580E090E0892B29F00E94100120
:1002400081110C9400000895FC01A48DA80FB92F12
:10025000B11DA35ABF4F2C91848D90E001968F73EE
:100260009927848FA689B7892C93A089B1898C910D
:10027000837080648C93938D848D981306C002885C
:10028000F389E02D80818F7D80830895EF92FF9226
:100290000F931F93CF93DF93EC0181E0888F9B8DA9
:1002A0008C8D98131AC0E889F989808185FF15C063
:1002B0009FB7F894EE89FF896083E889F989808186
:1002C0008370806480839FBF81E090E0DF91CF9155
:1002D0001F910F91FF90EF900895F62E0B8D10E077
:1002E0000F5F1F4F0F731127E02E8C8D8E110CC0E6
:1002F0000FB607FCFACFE889F989808185FFF5CF31
:10030000CE010E942401F1CFEB8DEC0FFD2FF11DEA
:10031000E35AFF4FF0829FB7F8940B8FEA89FB896D
:1003200080818062CFCFCF93DF93EC01888D8823CB
:10033000B9F0AA89BB89E889F9898C9185FD03C048
:10034000808186FD0DC00FB607FCF7CF8C9185FF2D
:10035000F2CF808185FFEDCFCE010E942401E9CF4D
:10036000DF91CF91089590E0FC01E859FF4F24916F
:10037000FC01EC55FF4F3491FC01E057FF4FE49135
:10038000EE23C9F0222339F0233001F1A8F4213003
:1003900019F1223029F1F0E0EE0FFF1FE458FF4F72
:1003A000A591B4918FB7F894EC91611126C0309566
:1003B0003E233C938FBF08952730A9F02830C9F021
:1003C000243049F7809180008F7D03C080918000A8
:1003D0008F7780938000DFCF84B58F7784BDDBCFAC
:1003E00084B58F7DFBCF8091B0008F778093B00074
:1003F000D2CF8091B0008F7DF9CF3E2BDACF3FB7BF
:10040000F89480918D0190918E01A0918F01B0910F
:10041000900126B5A89B05C02F3F19F00196A11D9C
:10042000B11D3FBFBA2FA92F982F8827BC01CD013E
:10043000620F711D811D911D42E0660F771F881F9D
:10044000991F4A95D1F708958F929F92AF92BF92CC
:10045000CF92DF92EF92FF920E94FF014B015C016D
:1004600088ECC82ED12CE12CF12C0E94FF016819D8
:1004700079098A099B09683E734081059105A8F3B3
:1004800021E0C21AD108E108F10888EE880E83E065
:10049000981EA11CB11CC114D104E104F10429F778
:1004A000FF90EF90DF90CF90BF90AF909F908F9094
:1004B00008950F931F93CF93DF9397E0899F800157
:1004C0001124D0E0C0E0F801EC0FFD1FEE5FFE4FFD
:1004D00060818C2F8E5F0E94B3012196C730D105B9
:1004E00091F7DF91CF911F910F91089580910001B5
:1004F00090910101099789F48AE090E090930101BD
:100500008093000160E00E94B301809197010E94F6
:10051000590261E089E00C94B30189E090E0909386
:1005200001018093000160E00E94B3018091980175
:100530000E94590261E08AE0EECFFC0101900020A8
:10054000E9F73197AF01481B590BBC0189E991E0EC
:100550000C94A6008F929F92AF92BF920F931F931D
:10056000CF93DF93CDB7DEB7A1970FB6F894DEBF78
:100570000FBECDBF19A2423008F44AE08E010F5DD4
:100580001F4F842E912CB12CA12CA50194010E9407
:100590000D05E62FB901CA01EA30F4F4E05DD80197
:1005A000EE938D01232B242B252B79F790E080E00F
:1005B000109719F0CD010E949D02A1960FB6F894F4
:1005C000DEBF0FBECDBFDF91CF911F910F91BF90C6
:1005D000AF909F908F900895E95CE1CF1F920F92AA
:1005E0000FB60F9211242F933F934F935F936F9306
:1005F0007F938F939F93AF93BF93EF93FF9389E97B
:1006000091E00E942401FF91EF91BF91AF919F91E2
:100610008F917F916F915F914F913F912F910F90AB
:100620000FBE0F901F9018951F920F920FB60F924A
:1006300011242F938F939F93EF93FF93E091A90140
:10064000F091AA018081E091AF01F091B00182FDAB
:100650001BC090818091B2018F5F8F732091B30195
:10066000821741F0E091B201F0E0E756FE4F958F1E
:100670008093B201FF91EF919F918F912F910F90F5
:100680000FBE0F901F9018958081F4CF1F920F928C
:100690000FB60F9211242F933F938F939F93AF9395
:1006A000BF938091890190918A01A0918B01B091B3
:1006B0008C013091880123E0230F2D3758F50196E6
:1006C000A11DB11D209388018093890190938A0117
:1006D000A0938B01B0938C0180918D0190918E013C
:1006E000A0918F01B09190010196A11DB11D809341
:1006F0008D0190938E01A0938F01B0939001BF91D3
:10070000AF919F918F913F912F910F900FBE0F90BE
:100710001F90189526E8230F0296A11DB11DD2CF78
:100720001F920F920FB60F9211242F933F934F9366
:100730005F936F937F938F939F93AF93BF93EF9349
:10074000FF93E0919501F09196010995FF91EF914A
:10075000BF91AF919F918F917F916F915F914F91D9
:100760003F912F910F900FBE0F901F901895789486
:1007700084B5826084BD84B5816084BD85B58260A6
:1007800085BD85B5816085BD80916E008160809357
:100790006E001092810080918100826080938100C0
:1007A00080918100816080938100809180008160D0
:1007B000809380008091B10084608093B10080912B
:1007C000B00081608093B00080917A008460809353
:1007D0007A0080917A00826080937A0080917A001A
:1007E000816080937A0080917A00806880937A009B
:1007F0001092C10082E00E94870083E00E9487007F
:1008000084E00E94870085E00E94870086E00E94C5
:10081000870087E00E94870088E00E94870089E0C7
:100820000E9487008AE00E9487008BE00E94870078
:100830001092800080E18093810022E02093930158
:100840008FB780939401F89480E197E2909392019E
:10085000809391019093870080938600809194010A
:100860008FBF80918100887F80938100909181006B
:1008700030919301932B9093810086E792E09093BF
:1008800096018093950181E080936F0080918100B3
:10089000832B80938100E091A901F091AA0120832C
:1008A000E091A501F091A6011082E091A701F091DD
:1008B000A8018FEC80831092B101E091AD01F0911D
:1008C000AE0186E08083E091AB01F091AC018081C4
:1008D00080618083E091AB01F091AC018081886000
:1008E0008083E091AB01F091AC01808180688083CE
:1008F000E091AB01F091AC0180818F7D8083C0E4F9
:10090000412C98E2592E612C712CC0937C0080916F
:100910007A00806480937A0080917A0086FDFCCF13
:1009200080917800E0907900FE2CE82EB7010F2C22
:10093000000C880B990B4AE00E94AA0284E891E01F
:100940000E949D0224E630E0D7010E942F054B0152
:100950005C017C016B018AE0F694E794D794C7941C
:100960008A95D1F784E2C816D104E104F10450F06D
:1009700061E08BE00E94B3010E94240260E08BE002
:100980000E94B3014AE0C701B6010E94AA0284E8AE
:1009900091E00E949D02C501B401A30192010E9451
:1009A0000D0520939801C701B6012AE030E040E030
:1009B00050E00E940D05609397010E942402A5CF8C
:1009C000E9E9F1E01382128288EE93E0A0E0B0E062
:1009D00084839583A683B78386E791E091838083A0
:1009E00085EC90E09587848784EC90E097878687F4
:1009F00080EC90E0918B808B81EC90E0938B828BEC
:100A000082EC90E0958B848B86EC90E0978B868BC4
:100A1000118E128E138E148E0895A1E21A2EAA1B27
:100A2000BB1BFD010DC0AA1FBB1FEE1FFF1FA2179E
:100A3000B307E407F50720F0A21BB30BE40BF50B9B
:100A4000661F771F881F991F1A9469F76095709524
:100A5000809590959B01AC01BD01CF0108950E9446
:100A60003C05B7FF0895821B930B0895EE0FFF1FFF
:100A70000590F491E02D0994A29FB001B39FC001AD
:100A8000A39F700D811D1124911DB29F700D811DBA
:0A0A90001124911D0895F894FFCF82
:100A9A000A0001010101010100000101000000003A
:100AAA000101000101000101010101000001000131
:100ABA000100000101010001010001010100010121
:100ACA000101010101010000000001010101010110
:100ADA000101010100000101000000000000000006
:100AEA0000000000000000000000000000000000FC
:100AFA0000000000000000000000000000000000EC
:100B0A000000000000004601A600D3009301040182
:080B1A00E200F6000D0A0000E4
:00000001FF
